{"abi":[{"type":"constructor","inputs":[{"name":"_guardian","type":"address","internalType":"address"}],"stateMutability":"nonpayable"},{"type":"receive","stateMutability":"payable"},{"type":"function","name":"guardian","inputs":[],"outputs":[{"name":"","type":"address","internalType":"address"}],"stateMutability":"view"},{"type":"function","name":"owner","inputs":[],"outputs":[{"name":"","type":"address","internalType":"address"}],"stateMutability":"view"},{"type":"function","name":"pauseWithdrawal","inputs":[],"outputs":[],"stateMutability":"nonpayable"},{"type":"function","name":"paused","inputs":[],"outputs":[{"name":"","type":"bool","internalType":"bool"}],"stateMutability":"view"},{"type":"function","name":"setGuardian","inputs":[{"name":"newGuardian","type":"address","internalType":"address"}],"outputs":[],"stateMutability":"nonpayable"},{"type":"function","name":"unpauseWithdrawal","inputs":[],"outputs":[],"stateMutability":"nonpayable"},{"type":"function","name":"withdraw","inputs":[{"name":"amount","type":"uint256","internalType":"uint256"}],"outputs":[],"stateMutability":"nonpayable"},{"type":"event","name":"Deposit","inputs":[{"name":"sender","type":"address","indexed":true,"internalType":"address"},{"name":"amount","type":"uint256","indexed":false,"internalType":"uint256"}],"anonymous":false},{"type":"event","name":"GuardianChanged","inputs":[{"name":"newGuardian","type":"address","indexed":true,"internalType":"address"}],"anonymous":false},{"type":"event","name":"Paused","inputs":[],"anonymous":false},{"type":"event","name":"Unpaused","inputs":[],"anonymous":false},{"type":"event","name":"Withdraw","inputs":[{"name":"recepient","type":"address","indexed":true,"internalType":"address"},{"name":"amount","type":"uint256","indexed":false,"internalType":"uint256"}],"anonymous":false},{"type":"error","name":"InsufficientBalance","inputs":[]},{"type":"error","name":"TransferFailed","inputs":[]},{"type":"error","name":"Unauthorized","inputs":[]},{"type":"error","name":"WithdrawPaused","inputs":[]}],"bytecode":{"object":"0x608060405234801561000f575f5ffd5b506040516109ec3803806109ec83398181016040528101906100319190610114565b335f5f6101000a81548173ffffffffffffffffffffffffffffffffffffffff021916908373ffffffffffffffffffffffffffffffffffffffff1602179055508060015f6101000a81548173ffffffffffffffffffffffffffffffffffffffff021916908373ffffffffffffffffffffffffffffffffffffffff1602179055505061013f565b5f5ffd5b5f73ffffffffffffffffffffffffffffffffffffffff82169050919050565b5f6100e3826100ba565b9050919050565b6100f3816100d9565b81146100fd575f5ffd5b50565b5f8151905061010e816100ea565b92915050565b5f60208284031215610129576101286100b6565b5b5f61013684828501610100565b91505092915050565b6108a08061014c5f395ff3fe608060405260043610610073575f3560e01c80635c975abb1161004d5780635c975abb146101345780638a0dac4a1461015e5780638da5cb5b146101865780639c69c782146101b0576100c8565b80632e1a7d4d146100cc5780633b698197146100f4578063452a93201461010a576100c8565b366100c8573373ffffffffffffffffffffffffffffffffffffffff167fe1fffcc4923d04b559f4d29a8bfc6cda04eb5b0d3c460751c2402c5c5cc9109c346040516100be91906106d7565b60405180910390a2005b5f5ffd5b3480156100d7575f5ffd5b506100f260048036038101906100ed919061071e565b6101c6565b005b3480156100ff575f5ffd5b506101086103be565b005b348015610115575f5ffd5b5061011e61048b565b60405161012b9190610788565b60405180910390f35b34801561013f575f5ffd5b506101486104b0565b60405161015591906107bb565b60405180910390f35b348015610169575f5ffd5b50610184600480360381019061017f91906107fe565b6104c3565b005b348015610191575f5ffd5b5061019a6105ce565b6040516101a79190610788565b60405180910390f35b3480156101bb575f5ffd5b506101c46105f2565b005b60015f9054906101000a900473ffffffffffffffffffffffffffffffffffffffff1673ffffffffffffffffffffffffffffffffffffffff163373ffffffffffffffffffffffffffffffffffffffff161461024c576040517f82b4290000000000000000000000000000000000000000000000000000000000815260040160405180910390fd5b600160149054906101000a900460ff1615610293576040517fe0a3980300000000000000000000000000000000000000000000000000000000815260040160405180910390fd5b804710156102cd576040517ff4d678b800000000000000000000000000000000000000000000000000000000815260040160405180910390fd5b5f3373ffffffffffffffffffffffffffffffffffffffff16826040516102f290610856565b5f6040518083038185875af1925050503d805f811461032c576040519150601f19603f3d011682016040523d82523d5f602084013e610331565b606091505b505090508061036c576040517f90b8ec1800000000000000000000000000000000000000000000000000000000815260040160405180910390fd5b3373ffffffffffffffffffffffffffffffffffffffff167f884edad9ce6fa2440d8a54cc123490eb96d2768479d49ff9c7366125a9424364836040516103b291906106d7565b60405180910390a25050565b5f5f9054906101000a900473ffffffffffffffffffffffffffffffffffffffff1673ffffffffffffffffffffffffffffffffffffffff163373ffffffffffffffffffffffffffffffffffffffff1614610443576040517f82b4290000000000000000000000000000000000000000000000000000000000815260040160405180910390fd5b5f600160146101000a81548160ff0219169083151502179055507fa45f47fdea8a1efdd9029a5691c7f759c32b7c698632b563573e155625d1693360405160405180910390a1565b60015f9054906101000a900473ffffffffffffffffffffffffffffffffffffffff1681565b600160149054906101000a900460ff1681565b5f5f9054906101000a900473ffffffffffffffffffffffffffffffffffffffff1673ffffffffffffffffffffffffffffffffffffffff163373ffffffffffffffffffffffffffffffffffffffff1614610548576040517f82b4290000000000000000000000000000000000000000000000000000000000815260040160405180910390fd5b8060015f6101000a81548173ffffffffffffffffffffffffffffffffffffffff021916908373ffffffffffffffffffffffffffffffffffffffff1602179055508073ffffffffffffffffffffffffffffffffffffffff167f01c6520cf747e4632b43b535b91afe3950ccabc4ab29bbd89e3c1f6b0ba0565560405160405180910390a250565b5f5f9054906101000a900473ffffffffffffffffffffffffffffffffffffffff1681565b5f5f9054906101000a900473ffffffffffffffffffffffffffffffffffffffff1673ffffffffffffffffffffffffffffffffffffffff163373ffffffffffffffffffffffffffffffffffffffff1614610677576040517f82b4290000000000000000000000000000000000000000000000000000000000815260040160405180910390fd5b60018060146101000a81548160ff0219169083151502179055507f9e87fac88ff661f02d44f95383c817fece4bce600a3dab7a54406878b965e75260405160405180910390a1565b5f819050919050565b6106d1816106bf565b82525050565b5f6020820190506106ea5f8301846106c8565b92915050565b5f5ffd5b6106fd816106bf565b8114610707575f5ffd5b50565b5f81359050610718816106f4565b92915050565b5f60208284031215610733576107326106f0565b5b5f6107408482850161070a565b91505092915050565b5f73ffffffffffffffffffffffffffffffffffffffff82169050919050565b5f61077282610749565b9050919050565b61078281610768565b82525050565b5f60208201905061079b5f830184610779565b92915050565b5f8115159050919050565b6107b5816107a1565b82525050565b5f6020820190506107ce5f8301846107ac565b92915050565b6107dd81610768565b81146107e7575f5ffd5b50565b5f813590506107f8816107d4565b92915050565b5f60208284031215610813576108126106f0565b5b5f610820848285016107ea565b91505092915050565b5f81905092915050565b50565b5f6108415f83610829565b915061084c82610833565b5f82019050919050565b5f61086082610836565b915081905091905056fea2646970667358221220c23d3073050f9462be46a90effcd3874e61d89770733f57fef2469e50063922f64736f6c634300081e0033","linkReferences":{}},"methodIdentifiers":{"guardian()":"452a9320","owner()":"8da5cb5b","pauseWithdrawal()":"9c69c782","paused()":"5c975abb","setGuardian(address)":"8a0dac4a","unpauseWithdrawal()":"3b698197","withdraw(uint256)":"2e1a7d4d"},"id":20}